S0160000496E737472756D656E74436F72652E737265634C
S11300000C9434000C943E000C943E000C943E007E
S11300100C943E000C943E000C943E000C943E0064
S11300200C943E000C943E000C943E000C943E0054
S11300300C943E000C943E000C943E000C943E0044
S11300400C943E000C943E000C943E000C943E0034
S11300500C943E000C943E000C943E000C943E0024
S11300600C943E000C943E0011241FBECFEFD8E048
S1130070DEBFCDBF0E9459000C946E000C940000AA
S113008088E08093C10086E08093C2001092C5008E
S11300908FE08093C400E0ECF0E080818D7F80836A
S11300A00895E0ECF0E0908195FFFDCF8093C600C9
S11300B008950E94400080E90E9451008AE30E9452
S11300C0510085E40E9451002FE78AE196E0215017
S11300D080409040E1F700C00000EDCFF894FFCFDE
S9030000FC
