:100000000C9434000C9425010C94EB010C945100D9
:100010000C9451000C9451000C9451000C9451001C
:100020000C9451000C9451000C9451000C9451000C
:100030000C9451000C9451000C9451000C945100FC
:100040000C9451000C9451000C9451000C945100EC
:100050000C9451000C9451000C9451000C945100DC
:100060000C9480020C94510011241FBECFEFD8E0F5
:10007000DEBFCDBF17E0A0E0B1E0ECE2FDE002C0E2
:1000800005900D92AC3AB107D9F727E0ACEAB7E09A
:1000900001C01D92A33BB207E1F70E94D8020C9465
:1000A00094060C9400002A9A00002A980895CF9391
:1000B000C82F662311F0289A01C028982998549ACD
:1000C000559A569A579A5F985E985D985C98CC239B
:1000D0000CF45F9AC6FD5E9AC5FD5D9AC4FD5C9AFC
:1000E0000E9453005F985E985D985C98C3FD5F9A8C
:1000F000C2FD5E9AC1FD5D9AC0FD5C9A0E945300EC
:100100005C9A5D9A5E9A5F9ACF910895882311F068
:10011000289A01C02898299A549855985698579823
:100120002A9A00004C9B02C080E101C080E04D99FA
:1001300080624E9980644F9980682A9800002A9ABC
:1001400000004C9981604D9982604E9984604F996E
:1001500088602A98089580E00E9486008823DCF356
:1001600000C000C080E00E9486000895CF93C82F91
:100170000E94AB0060E08C2F0E945700CF91089541
:1001800081E00E94B6000895CF93C82F0E94AB0073
:10019000CA3049F4803410F080E001C080E4805817
:1001A0000E94B60004C061E08C2F0E945700CF91DE
:1001B0000895CF93DF93EC012196FC018081882381
:1001C00029F00E94C40089918111FBCFDF91CF916A
:1001D0000895CF93C82F209A219A229A549A559A1B
:1001E000569A579A8FE99FE00197F1F700C00000F7
:1001F0005D9A5C9A0E94530081EE94E00197F1F7BA
:1002000000C000000E94530095E19A95F1F70000AC
:100210000E94530085E18A95F1F700005C980E94E6
:10022000530095E19A95F1F7000088E20E94B6002C
:1002300088E00E94B6000E94C00086E00E94B600DE
:100240008C2F0E94B600CF9108951F920F920FB687
:100250000F9211240F931F932F933F934F935F930C
:100260006F937F938F939F93AF93BF93EF93FF937E
:10027000CF93DF93CDB7DEB76197DEBFCDBF339BA2
:1002800050C04B9B14C08091AD079091AE071816DB
:10029000190634F48091AD079091AE07019702C022
:1002A0008FE790E09093AE078093AD0711C08091E7
:1002B000AD079091AE0701968F779078992324F43B
:1002C000019780689F6F01969093AE078093AD076A
:1002D0008091AD079091AE079F938F9383E092E05A
:1002E0009F938F938E010F5F1F4F1F930F930E9459
:1002F000BC030E94C000C8010E94D900E091AD0774
:10030000F091AE07EE0FFF1FED5FFE4F80819181F0
:100310000E94D9000F900F900F900F900F900F90A8
:1003200036C04B9B0CC080910201882321F0809144
:100330000201815001C08FE7809302010EC08091BD
:10034000020190E001968F779078992324F4019729
:1003500080689F6F019680930201809102011F9235
:100360008F9381E192E09F938F938E010F5F1F4FD8
:100370001F930F930E94BC030E94C000C8010E94FB
:10038000D9000F900F900F900F900F900F902FEFBC
:1003900083EC99E0215080409040E1F700C00000DC
:1003A00061960FB6F894DEBF0FBECDBFDF91CF913F
:1003B000FF91EF91BF91AF919F918F917F916F913D
:1003C0005F914F913F912F911F910F910F900FBE11
:1003D0000F901F9018951F920F920FB60F92112435
:1003E0000F900FBE0F901F901895CF938091000132
:1003F00090910101099734F10E94900380910001CE
:100400009091010161E00E94A8030E94AD03C82FF2
:100410000E94990320910001309101018C2F90E0FE
:100420008217930779F08091000190910101019763
:10043000909301018093000180910001909101014E
:100440000997D4F6CF9108958091AC07813041F59A
:100450008091B007813009F04AC00E94F501809177
:10046000000190910101873791050CF040C00E9476
:10047000900360E080E00E94A803809100019091C9
:1004800001018F5F0E949D030E94990380910001EA
:1004900090910101019690930101809300010895CC
:1004A0008091AC07833019F58091B1078130F9F460
:1004B0008091B0072091020190E00997820F911D71
:1004C0008F779078992324F4019780689F6F019625
:1004D0002091B207222331F0429A6091B2070E9424
:1004E0005003089542986091B2070E946A030895EC
:1004F000E0EBF7E01082118212821092AC070895AF
:100500001F920F920FB60F9211242F933F934F9388
:100510005F936F937F938F939F93AF93BF93EF936B
:10052000FF93F8940E94B803803851F0883BF9F0AB
:10053000803619F5ECEBF0E08081856C808326C075
:100540008091AC07833068F4E091AC07F0E08091D3
:10055000BB00E055F84F80838091AC078F5F80939C
:10056000AC07ECEBF0E08081856C80830FC0ECEB96
:10057000F0E08081856C808309C00E9424020E9483
:100580007802ECEBF0E08081856480837894FF91C1
:10059000EF91BF91AF919F918F917F916F915F91FB
:1005A0004F913F912F910F900FBE0F901F90189574
:1005B0003A9A8AB1837F8AB98BB18C608BB98DB33B
:1005C00083608DBB85B78E6085BF3B9843980E9442
:1005D000200381E00E94310380E00E9440030E94DA
:1005E00084038CE00E94E9000E94C00082E292E055
:1005F0000E94D900E091AD07F091AE07EE0FFF1F0A
:10060000ED5FFE4F808191810E94D9007894C0E017
:10061000D0E00CE310E0FFB6F8948091AD07909124
:10062000AE078C179D0739F0C091AD07D091AE078A
:100630008C2F0E944003FFBE0150110961F7E9CFE2
:1006400088E08093C10086E08093C2001092C500CC
:100650008FE18093C400E0ECF0E080818D7F8083A7
:1006600008958150803108F080E08093AF070895AD
:10067000E0ECF0E0908195FFFDCF8093C6000895F7
:10068000CF93C82F8091AF07806C0E943803CC2392
:1006900014F08C2F01C08FE70E943803CF9108958A
:1006A000CF93DF93D82FC62F8091AF0780690E9428
:1006B0003803DD2314F08D2F01C08FE70E9438032B
:1006C000CC2314F08C2F01C08FE70E943803DF91F8
:1006D000CF910895CF93DF93D82FC62F8091AF0786
:1006E00080680E943803DD2314F08D2F01C08FE74E
:1006F0000E943803CC2314F08C2F01C08FE70E9496
:100700003803DF91CF9108951092B90088E4809367
:10071000B80080E18093BA0085EC8093BC00089516
:1007200084EA8093BC00ECEBF0E080818823ECF756
:10073000089584E98093BC0008958093BB0084E809
:100740008093BC00ECEBF0E080818823ECF7089507
:10075000880F862B0E949D03089584EC8093BC0033
:10076000ECEBF0E080818823ECF78091BB000895EA
:100770008091B900887F0895AEE0B0E0E2ECF3E04C
:100780000C946B060D891E8986E08C831A8309837D
:100790008FEF9FE79E838D83AE01475E5F4F6F892A
:1007A000788DCE0101960E94DF032F813885F801F4
:1007B000E20FF31F10822E96E4E00C948706ACE063
:1007C000B0E0E5EEF3E00C945D067C016B018A017C
:1007D000FC0117821682838181FFBDC1CE01019683
:1007E0004C01F7019381F60193FD859193FF81916F
:1007F0006F01882309F4ABC1853239F493FD8591EB
:1008000093FF81916F01853229F4B70190E00E9436
:10081000C705E7CF512C312C20E02032A0F48B32D9
:1008200069F030F4803259F0833269F420612CC0D1
:100830008D3239F0803339F4216026C02260246083
:1008400023C0286021C027FD27C030ED380F3A3083
:1008500078F426FF06C0FAE05F9E300D1124532E77
:1008600013C08AE0389E300D1124332E20620CC054
:100870008E3221F426FD6BC1206406C08C3611F443
:10088000206802C0883641F4F60193FD859193FFFC
:1008900081916F018111C1CF982F9F7D9554933025
:1008A00028F40C5F1F4FFFE3F9830DC0833631F04E
:1008B000833771F0833509F05BC022C0F801808175
:1008C00089830E5F1F4F44244394512C540115C05B
:1008D0003801F2E06F0E711CF801A080B18026FF94
:1008E00003C0652D70E002C06FEF7FEFC5012C875C
:1008F0000E94BC052C0183012C852F77222E17C066
:100900003801F2E06F0E711CF801A080B18026FF63
:1009100003C0652D70E002C06FEF7FEFC5012C872B
:100920000E94B1052C012C852068222E830123FC16
:100930001BC0832D90E048165906B0F4B70180E241
:1009400090E00E94C7053A94F4CFF50127FC859109
:1009500027FE81915F01B70190E00E94C705311029
:100960003A94F1E04F1A51084114510471F7E5C06F
:10097000843611F0893639F5F80127FF07C0608108
:100980007181828193810C5F1F4F08C060817181EA
:10099000072E000C880B990B0E5F1F4F2F76722EBF
:1009A00097FF09C090958095709561957F4F8F4F07
:1009B0009F4F2068722E2AE030E0A4010E94FF05BC
:1009C000A82EA81844C0853729F42F7EB22E2AE01D
:1009D00030E025C0F22FF97FBF2E8F36C1F018F41A
:1009E000883579F0B4C0803719F0883721F0AFC06E
:1009F0002F2F2061B22EB4FE0DC08B2D8460B82E37
:100A000009C024FF0AC09F2F9660B92E06C028E0B7
:100A100030E005C020E130E002C020E132E0F80122
:100A2000B7FE07C060817181828193810C5F1F4F87
:100A300006C06081718180E090E00E5F1F4FA401CD
:100A40000E94FF05A82EA818FB2DFF777F2E76FEAB
:100A50000BC0372D3E7FA51450F474FE0AC072FC03
:100A600008C0372D3E7E05C0BA2C372D03C0BA2CE6
:100A700001C0B52C34FF0DC0FE01EA0DF11D8081CF
:100A8000803311F4397E09C032FF06C0B394B394A9
:100A900004C0832F867809F0B39433FD13C030FF70
:100AA00006C05A2CB31418F4530C5B18B32CB314AF
:100AB00068F4B70180E290E03C870E94C705B394D8
:100AC0003C85F5CFB31410F43B1801C0312C34FF32
:100AD00012C0B70180E390E03C870E94C7053C85C7
:100AE00032FF17C031FD03C088E790E002C088E5FF
:100AF00090E0B7010CC0832F867859F031FF02C017
:100B00008BE201C080E237FD8DE2B70190E00E94E8
:100B1000C705A51438F4B70180E390E00E94C7052B
:100B20005A94F7CFAA94F401EA0DF11D8081B70120
:100B300090E00E94C705A110F5CF332009F451CEF3
:100B4000B70180E290E00E94C7053A94F6CFF70122
:100B50008681978102C08FEF9FEF2C96E2E10C9483
:100B60007906FC010590615070400110D8F780951E
:100B700090958E0F9F1F0895FC0161507040019069
:100B80000110D8F7809590958E0F9F1F08950F93B1
:100B90001F93CF93DF93FB01238121FD03C08FEFD0
:100BA0009FEF28C022FF16C04681578124813581DE
:100BB0004217530744F4A081B1819D012F5F3F4F3D
:100BC000318320838C93268137812F5F3F4F37837A
:100BD000268310C0EB01092F182F0084F185E02D2A
:100BE0000995892BE1F68E819F8101969F838E83E3
:100BF000812F902FDF91CF911F910F910895FA01CE
:100C0000AA27283051F1203181F1E8946F936E7F4B
:100C10006E5F7F4F8F4F9F4FAF4FB1E03ED0B4E03C
:100C20003CD0670F781F891F9A1FA11D680F791F7D
:100C30008A1F911DA11D6A0F711D811D911DA11D8E
:100C400020D009F468943F912AE0269F112430199E
:100C5000305D3193DEF6CF010895462F4770405D39
:100C60004193B3E00FD0C9F7F6CF462F4F70405DE8
:100C70004A3318F0495D31FD4052419302D0A9F743
:100C8000EACFB4E0A6959795879577956795BA953D
:100C9000C9F700976105710508959B01AC010A2E03
:100CA00006945795479537952795BA95C9F7620FDA
:100CB000731F841F951FA01D08952F923F924F927E
:100CC0005F926F927F928F929F92AF92BF92CF92DC
:100CD000DF92EF92FF920F931F93CF93DF93CDB7E5
:100CE000DEB7CA1BDB0B0FB6F894DEBF0FBECDBF5D
:100CF00009942A88398848885F846E847D848C842E
:100D00009B84AA84B984C884DF80EE80FD800C8136
:100D10001B81AA81B981CE0FD11D0FB6F894DEBF19
:0C0D20000FBECDBFED010895F894FFCF89
:100D2C0008003C330242025302620271027C0287C9
:100D3C000293029902A102AE02B702C202CA02D405
:100D4C0002E102EA02F702070311031D033603272F
:100D5C000331034003500360036F037F038F03A031
:100D6C0003B103C103CA03D903E603F303FD03076D
:100D7C000412041D0424042A0430043B044A045BBA
:100D8C00046A04720482049204A004AE04B804C27F
:100D9C0004CD04ED04DA04E304E804F50400050DC5
:100DAC0005190525053005380541054D0552055E2B
:100DBC000566056F0583057705800589059505A0F2
:100DCC0005A805B005BC05CA05D805E305F005FB6B
:100DDC00050706160621062A06380642064C065951
:100DEC000662066C06740682068D069B06A906B47E
:100DFC0006BE06C706CD06D306DC06E106E906F1FB
:100E0C0006F806FF060A0710071B0725072F073AE7
:100E1C00074407520762076E07770781078F079A07
:100E2C0007A307496E73747253656C3A2025640AE4
:100E3C00004E6F7465204F66667365743A202564A6
:100E4C000A004D6F64756C724D75736963496E73EE
:100E5C00740A00416373744772616E645069616E09
:100E6C006F0042726967687441637374635069619F
:100E7C006E6F00456C65634772616E645069616E9C
:100E8C006F00486F6E6B79546F6E6B5069616E6F4B
:100E9C0000456C65635069616E6F3100456C65632C
:100EAC005069616E6F320048617270736963686F6C
:100EBC00726400436C6176690043656C65737461A0
:100ECC0000476C6F636B656E737069656C004D7574
:100EDC00736963426F7800566962726170686F6EF5
:100EEC0065004D6172696D62610058796C6F706854
:100EFC006F6E6500547562756C617242656C6C73D3
:100F0C000044756C63696D6572004472617762614F
:100F1C00724F7267616E0050657263757373697698
:100F2C00654F7267616E00526F636B4F7267616ED3
:100F3C00004368757263684F7267616E0052656535
:100F4C00644F7267616E004861726D6F6E696361A8
:100F5C000054616E676F4163636F7264696F6E00FA
:100F6C00416373744775697461724E796C6F6E006E
:100F7C0041637374477569746172537465656C0071
:100F8C00456C65634775697461724A617A7A00458C
:100F9C006C6563477569746172436C65616E00457D
:100FAC006C65634775697461724D75746564004F47
:100FBC0076657264726976656E47756974617200E4
:100FCC00446973746F7274696F6E4775697461727A
:100FDC00004775697461724861726D6F6E696373F5
:100FEC0000416373744261737300456C65634261C5
:100FFC00737346696E67657200456C656342617315
:10100C00735069636B00467265746C6573734261EF
:10101C00737300536C6170426173733100536C6174
:10102C007042617373320053796E746842617373EA
:10103C00310053796E746842617373320056696F74
:10104C006C696E0056696F6C610043656C6C6F0067
:10105C00436F6E74726162617373005472656D6F6D
:10106C006C6F537472696E67730050697A7A696336
:10107C0061746F537472696E6773004F7263686545
:10108C00737472616C486172700054696D70616E3A
:10109C006900537472696E67456E73656D626C6539
:1010AC003100537472696E67456E73656D626C6561
:1010BC00320053796E7468537472696E67733100C1
:1010CC0053796E7468537472696E67733200436837
:1010DC006F69724161687300566F6963654F6F6821
:1010EC00730053796E7468566F696365004F726351
:1010FC006865737472614869740054726F6D626FC5
:10110C006E650054756261004D757465645472753A
:10111C006D706574004672656E6368486F726E0020
:10112C00427261737353656374696F6E0053796EA9
:10113C0074684272617373310053796E74684272D1
:10114C006173733200536F7072616E6F536178000C
:10115C00416C746F5361780054656E6F7253617893
:10116C000042617269746F6E65536178004F626FF3
:10117C006500456E676C697368486F726E004261FA
:10118C0073736F6F6E00436C6172696E657400509F
:10119C006963636F6C6F005265636F726465720094
:1011AC0050616E466C75746500426C6F776E426F61
:1011BC0074746C65005368616B7568616368690071
:1011CC0057686973746C65004F636172696E610076
:1011DC004C65616431537175617265004C65616475
:1011EC0032536177746F6F7468004C65616433437C
:1011FC00616C6C696F7065004C656164344368693F
:10120C006666004C6561643543686172616E6700A7
:10121C004C65616436566F696365004C6561643773
:10122C00666966746873004C6561643842617373F7
:10123C002B4C65616400506164314E657741676584
:10124C0000506164325761726D0050616433506FAD
:10125C006C7973796E7468005061643443686F699B
:10126C00720050616435426F77656400506164367A
:10127C004D6574616C6C6963005061643748616CD6
:10128C006F00506164385377656570004658315271
:10129C0061696E00465832536F756E647472616387
:1012AC006B004658334372797374616C0046583442
:1012BC0041746D6F73706865726500465835427283
:1012CC00696768746E65737300465836476F626C55
:1012DC00696E73004658374563686F6573004658EE
:1012EC003853636946690053697461720042616ED8
:1012FC006A6F005368616D6973656E004B6F746F34
:10130C00004B616C696D6261004261677069706568
:10131C0000466964646C65005368616E61690054D1
:10132C00696E6B6C6542656C6C0041676F676F0032
:10133C00537465656C4472756D7300576F6F64629E
:10134C006C6F636B005461696B6F4472756D004D0B
:10135C00656C6F646963546F6D0053796E74684487
:10136C0072756D005265766572736543796D626155
:10137C006C00477569746172467265744E6F69735F
:10138C0065004272656174684E6F697365005365E0
:10139C006173686F72650042697264547765657435
:1013AC000054656C6570686F6E6552696E670048B5
:1013BC00656C69636F70746572004170706C6175F7
:0C13CC0073650047756E73686F74000055
:00000001FF
