:100000000C9434000C9425010C94E1010C945100E3
:100010000C9451000C9451000C9451000C9451001C
:100020000C9451000C9451000C9451000C9451000C
:100030000C9451000C9451000C9451000C945100FC
:100040000C9451000C9451000C9451000C945100EC
:100050000C9451000C9451000C9451000C945100DC
:100060000C944D020C94510011241FBECFEFD8E028
:10007000DEBFCDBF17E0A0E0B1E0E8EAFCE002C0DF
:1000800005900D92AA3BB107D9F727E0AAEBB7E09C
:1000900001C01D92AF3BB207E1F70E94A7020C948A
:1000A00052060C9400002A9A00002A980895CF93D3
:1000B000C82F662311F0289A01C028982998549ACD
:1000C000559A569A579A5F985E985D985C98CC239B
:1000D0000CF45F9AC6FD5E9AC5FD5D9AC4FD5C9AFC
:1000E0000E9453005F985E985D985C98C3FD5F9A8C
:1000F000C2FD5E9AC1FD5D9AC0FD5C9A0E945300EC
:100100005C9A5D9A5E9A5F9ACF910895882311F068
:10011000289A01C02898299A549855985698579823
:100120002A9A00004C9B02C080E101C080E04D99FA
:1001300080624E9980644F9980682A9800002A9ABC
:1001400000004C9981604D9982604E9984604F996E
:1001500088602A98089580E00E9486008823DCF356
:1001600000C000C080E00E9486000895CF93C82F91
:100170000E94AB0060E08C2F0E945700CF91089541
:1001800081E00E94B6000895CF93C82F0E94AB0073
:10019000CA3049F4803410F080E001C080E4805817
:1001A0000E94B60004C061E08C2F0E945700CF91DE
:1001B0000895CF93DF93EC012196FC018081882381
:1001C00029F00E94C40089918111FBCFDF91CF916A
:1001D0000895CF93C82F209A219A229A549A559A1B
:1001E000569A579A8FE99FE00197F1F700C00000F7
:1001F0005D9A5C9A0E94530081EE94E00197F1F7BA
:1002000000C000000E94530095E19A95F1F70000AC
:100210000E94530085E18A95F1F700005C980E94E6
:10022000530095E19A95F1F7000088E20E94B6002C
:1002300088E00E94B6000E94C00086E00E94B600DE
:100240008C2F0E94B600CF9108951F920F920FB687
:100250000F9211240F931F932F933F934F935F930C
:100260006F937F938F939F93AF93BF93EF93FF937E
:10027000CF93DF93CDB7DEB76197DEBFCDBF339BA2
:1002800042C04B9B0FC08091BB0790E001968F77D7
:100290009078992324F4019780689F6F019680934A
:1002A000BB070BC08091BB07882321F08091BB075F
:1002B000815001C08FE78093BB078091BB071F92DD
:1002C0008F9382E092E09F938F938E010F5F1F4F79
:1002D0001F930F930E947A030E94C000C8010E94DE
:1002E000D900E091BB07F0E0EE0FFF1FEE5FFE4F7D
:1002F000808191810E94D9000F900F900F900F90F4
:100300000F900F903AC04B9B0FC08091010190E07D
:1003100001968F779078992324F4019780689F6FD6
:100320000196809301010BC080910101882321F087
:1003300080910101815001C08FE78093010180917C
:1003400001011F928F9383E192E09F938F938E011F
:100350000F5F1F4F1F930F930E947A030E94C000EC
:10036000C8010E94D90084E292E00E94D9000F9057
:100370000F900F900F900F900F902FEF83EC99E05C
:10038000215080409040E1F700C0000061960FB618
:10039000F894DEBF0FBECDBFDF91CF91FF91EF91FB
:1003A000BF91AF919F918F917F916F915F914F918D
:1003B0003F912F911F910F910F900FBE0F901F90A3
:1003C00018951F920F920FB60F9211240F900FBE27
:1003D0000F901F901895CF93809100018930B8F04D
:1003E0000E9459038091000160E00E9471030E9405
:1003F0007603C82F0E946203C83149F08091000142
:1004000081508093000180910001893048F7CF919D
:1004100008958091BA078130E9F48091BD07813059
:10042000D9F50E94EB01809100018737A8F50E9461
:10043000590360E080E00E947103809100018F5FAA
:100440000E9466030E946203809100018F5F809387
:10045000000108958091BA078230F1F48091BD07C0
:100460002091010190E00997820F911D8F7790787C
:10047000992324F4019780689F6F01962091BE070D
:10048000222331F0429A6091BE070E941903089519
:10049000429860E00E94330308951F920F920FB6B6
:1004A0000F9211242F933F934F935F936F937F93FA
:1004B0008F939F93AF93BF93EF93FF93F8940E9412
:1004C0007603803861F0883B09F1803629F5109277
:1004D000BA07ECEBF0E08081856C808326C08091C8
:1004E000BA07823068F4E091BA07F0E08091BB006F
:1004F000E354F84F80838091BA078F5F8093BA07E7
:10050000ECEBF0E08081856C80830FC0ECEBF0E0D9
:100510008081856C808309C00E9409021092BA070D
:10052000ECEBF0E08081856480837894FF91EF911B
:10053000BF91AF919F918F917F916F915F914F91FB
:100540003F912F910F900FBE0F901F9018953A9AE0
:100550008AB1837F8AB98BB18C608BB98DB383608C
:100560008DBB85B78E6085BF3B9843980E94E9029A
:1005700081E00E94FA0280E00E9409030E944D037C
:100580008CE00E94E9000E94C00081E392E00E949A
:10059000D900E091BB07F0E0EE0FFF1FEE5FFE4FCA
:1005A000808191810E94D9007894C0E0D0E01FB78B
:1005B000F8948091BB0790E0C817D90739F0809173
:1005C000BB07C82FD0E00E94090301C0EC011FBF88
:1005D000EECF88E08093C10086E08093C200109245
:1005E000C5008FE18093C400E0ECF0E080818D7F56
:1005F000808308958150803108F080E08093BC07AB
:100600000895E0ECF0E0908195FFFDCF8093C60067
:100610000895CF93C82F8091BC07806C0E9401037E
:10062000CC2314F08C2F01C08FE70E940103CF91DF
:100630000895CF93DF93D82FC62F8091BC07806990
:100640000E940103DD2314F08D2F01C08FE70E946B
:100650000103CC2314F08C2F01C08FE70E9401030B
:10066000DF91CF910895CF93DF93D82FC62F80913C
:10067000BC0780680E940103DD2314F08D2F01C0A8
:100680008FE70E940103CC2314F08C2F01C08FE769
:100690000E940103DF91CF9108951092B90088E480
:1006A0008093B80080E18093BA0085EC8093BC0011
:1006B000089584EA8093BC00ECEBF0E0808188230D
:1006C000ECF7089584E98093BC0008958093BB0003
:1006D00084E88093BC00ECEBF0E080818823ECF7A9
:1006E0000895880F862B0E94660308958091B900B3
:1006F000887F0895AEE0B0E0E0E8F3E00C942906CE
:100700000D891E8986E08C831A8309838FEF9FE70A
:100710009E838D83AE01475E5F4F6F89788DCE01DA
:1007200001960E949D032F813885F801E20FF31F87
:1007300010822E96E4E00C944506ACE0B0E0E3EACB
:10074000F3E00C941B067C016B018A01FC0117820B
:100750001682838181FFBDC1CE0101964C01F70154
:100760009381F60193FD859193FF81916F01882319
:1007700009F4ABC1853239F493FD859193FF8191E2
:100780006F01853229F4B70190E00E948505E7CF1B
:10079000512C312C20E02032A0F48B3269F030F45F
:1007A000803259F0833269F420612CC08D3239F0E7
:1007B000803339F4216026C02260246023C0286081
:1007C00021C027FD27C030ED380F3A3078F426FFDE
:1007D00006C0FAE05F9E300D1124532E13C08AE04C
:1007E000389E300D1124332E20620CC08E3221F43D
:1007F00026FD6BC1206406C08C3611F4206802C04F
:10080000883641F4F60193FD859193FF81916F0144
:100810008111C1CF982F9F7D9554933028F40C5FA0
:100820001F4FFFE3F9830DC0833631F0833771F03A
:10083000833509F05BC022C0F801808189830E5F97
:100840001F4F44244394512C540115C03801F2E049
:100850006F0E711CF801A080B18026FF03C0652DCA
:1008600070E002C06FEF7FEFC5012C870E947A0510
:100870002C0183012C852F77222E17C03801F2E03E
:100880006F0E711CF801A080B18026FF03C0652D9A
:1008900070E002C06FEF7FEFC5012C870E946F05EB
:1008A0002C012C852068222E830123FC1BC0832D64
:1008B00090E048165906B0F4B70180E290E00E943B
:1008C00085053A94F4CFF50127FC859127FE8191A7
:1008D0005F01B70190E00E94850531103A94F1E084
:1008E0004F1A51084114510471F7E5C0843611F0D4
:1008F000893639F5F80127FF07C06081718182814F
:1009000093810C5F1F4F08C060817181072E000C1E
:10091000880B990B0E5F1F4F2F76722E97FF09C021
:1009200090958095709561957F4F8F4F9F4F206870
:10093000722E2AE030E0A4010E94BD05A82EA8185E
:1009400044C0853729F42F7EB22E2AE030E025C03E
:10095000F22FF97FBF2E8F36C1F018F4883579F069
:10096000B4C0803719F0883721F0AFC02F2F206135
:10097000B22EB4FE0DC08B2D8460B82E09C024FFAA
:100980000AC09F2F9660B92E06C028E030E005C04F
:1009900020E130E002C020E132E0F801B7FE07C0FC
:1009A00060817181828193810C5F1F4F06C06081DD
:1009B000718180E090E00E5F1F4FA4010E94BD0591
:1009C000A82EA818FB2DFF777F2E76FE0BC0372DA3
:1009D0003E7FA51450F474FE0AC072FC08C0372D87
:1009E0003E7E05C0BA2C372D03C0BA2C01C0B52CF1
:1009F00034FF0DC0FE01EA0DF11D8081803311F43A
:100A0000397E09C032FF06C0B394B39404C0832F6B
:100A1000867809F0B39433FD13C030FF06C05A2C1A
:100A2000B31418F4530C5B18B32CB31468F4B70167
:100A300080E290E03C870E948505B3943C85F5CF29
:100A4000B31410F43B1801C0312C34FF12C0B701AD
:100A500080E390E03C870E9485053C8532FF17C00B
:100A600031FD03C088E790E002C088E590E0B7015F
:100A70000CC0832F867859F031FF02C08BE201C091
:100A800080E237FD8DE2B70190E00E948505A51454
:100A900038F4B70180E390E00E9485055A94F7CFBF
:100AA000AA94F401EA0DF11D8081B70190E00E9443
:100AB0008505A110F5CF332009F451CEB70180E2AE
:100AC00090E00E9485053A94F6CFF70186819781E0
:100AD00002C08FEF9FEF2C96E2E10C943706FC01E9
:100AE0000590615070400110D8F7809590958E0F59
:100AF0009F1F0895FC016150704001900110D8F7CC
:100B0000809590958E0F9F1F08950F931F93CF93FD
:100B1000DF93FB01238121FD03C08FEF9FEF28C0EE
:100B200022FF16C046815781248135814217530721
:100B300044F4A081B1819D012F5F3F4F3183208319
:100B40008C93268137812F5F3F4F3783268310C0D8
:100B5000EB01092F182F0084F185E02D0995892BD1
:100B6000E1F68E819F8101969F838E83812F902F46
:100B7000DF91CF911F910F910895FA01AA27283094
:100B800051F1203181F1E8946F936E7F6E5F7F4F5A
:100B90008F4F9F4FAF4FB1E03ED0B4E03CD0670FD6
:100BA000781F891F9A1FA11D680F791F8A1F911D29
:100BB000A11D6A0F711D811D911DA11D20D009F479
:100BC00068943F912AE0269F11243019305D3193BB
:100BD000DEF6CF010895462F4770405D4193B3E0A4
:100BE0000FD0C9F7F6CF462F4F70405D4A3318F04B
:100BF000495D31FD4052419302D0A9F7EACFB4E0FC
:100C0000A6959795879577956795BA95C9F70097B3
:100C10006105710508959B01AC010A2E0694579554
:100C2000479537952795BA95C9F7620F731F841FAB
:100C3000951FA01D08952F923F924F925F926F9241
:100C40007F928F929F92AF92BF92CF92DF92EF925C
:100C5000FF920F931F93CF93DF93CDB7DEB7CA1BDD
:100C6000DB0B0FB6F894DEBF0FBECDBF09942A8808
:100C7000398848885F846E847D848C849B84AA84B0
:100C8000B984C884DF80EE80FD800C811B81AA813D
:100C9000B981CE0FD11D0FB6F894DEBF0FBECDBF08
:080CA000ED010895F894FFCF67
:100CA800083C420251026202710280028B029602E3
:100CB800A202A802B002BD02C602D102D902E30212
:100CC800F002F9020603160320032C03450336033A
:100CD80040034F035F036F037E038E039E03AF033E
:100CE800C003D003D903E803F50302040C04160477
:100CF80021042C04330439043F044A0459046A04C7
:100D0800790481049104A104AF04BD04C704D1048B
:100D1800DC04FC04E904F204F70404050F051C05CF
:100D2800280534053F05470550055C0561056D0537
:100D380075057E05920586058F059805A405AF05FE
:100D4800B705BF05CB05D905E705F205FF050A0676
:100D58001606250630063906470651065B0668065C
:100D680071067B06830691069C06AA06B806C3068A
:100D7800CD06D606DC06E206EB06F006F806000706
:100D880007070E0719071F072A0734073E074907F1
:100D98005307610771077D07860790079E07A90714
:100DA800B207496E7374726D6E7453656C3A202580
:100DB800640A005472616E73706F73653A20202064
:100DC80025640A00284E6F74652043343D36302967
:100DD800004D6F64756C724D75736963496E7374F9
:100DE8000A00416373744772616E645069616E6F83
:100DF8000042726967687441637374635069616E15
:100E08006F00456C65634772616E645069616E6F0F
:100E180000486F6E6B79546F6E6B5069616E6F002E
:100E2800456C65635069616E6F3100456C65635050
:100E380069616E6F320048617270736963686F72BE
:100E48006400436C6176690043656C657374610086
:100E5800476C6F636B656E737069656C004D757375
:100E68006963426F7800566962726170686F6E6577
:100E7800004D6172696D62610058796C6F70686FBE
:100E88006E6500547562756C617242656C6C7300B6
:100E980044756C63696D6572004472617762617252
:100EA8004F7267616E00506572637573736976651A
:100EB8004F7267616E00526F636B4F7267616E00AD
:100EC8004368757263684F7267616E005265656446
:100ED8004F7267616E004861726D6F6E6963610081
:100EE80054616E676F4163636F7264696F6E00412E
:100EF8006373744775697461724E796C6F6E0041E3
:100F0800637374477569746172537465656C0045E1
:100F18006C65634775697461724A617A7A00456CD9
:100F28006563477569746172436C65616E00456CF1
:100F380065634775697461724D75746564004F76B1
:100F4800657264726976656E47756974617200448A
:100F58006973746F7274696F6E4775697461720032
:100F68004775697461724861726D6F6E6963730069
:100F7800416373744261737300456C6563426173C6
:100F88007346696E67657200456C65634261737389
:100F98005069636B00467265746C65737342617364
:100FA8007300536C6170426173733100536C6170EC
:100FB80042617373320053796E746842617373319E
:100FC8000053796E746842617373320056696F6CAE
:100FD800696E0056696F6C610043656C6C6F004305
:100FE8006F6E74726162617373005472656D6F6CB9
:100FF8006F537472696E67730050697A7A696361B6
:10100800746F537472696E6773004F7263686573A7
:101018007472616C486172700054696D70616E69B8
:1010280000537472696E67456E73656D626C6531E5
:1010380000537472696E67456E73656D626C6532D4
:101048000053796E7468537472696E677331005314
:10105800796E7468537472696E6773320043686F8F
:1010680069724161687300566F6963654F6F687391
:101078000053796E7468566F696365004F726368D0
:1010880065737472614869740054726F6D626F6E33
:10109800650054756261004D757465645472756DB0
:1010A800706574004672656E6368486F726E0042C0
:1010B8007261737353656374696F6E0053796E74EC
:1010C800684272617373310053796E746842726159
:1010D80073733200536F7072616E6F5361780041A1
:1010E8006C746F5361780054656E6F725361780049
:1010F80042617269746F6E65536178004F626F6503
:1011080000456E676C697368486F726E0042617360
:10111800736F6F6E00436C6172696E65740050691D
:1011280063636F6C6F005265636F72646572005021
:10113800616E466C75746500426C6F776E426F74B1
:10114800746C65005368616B756861636869005702
:10115800686973746C65004F636172696E61004CF5
:1011680065616431537175617265004C6561643203
:10117800536177746F6F7468004C656164334361C1
:101188006C6C696F7065004C6561643443686966AE
:1011980066004C6561643543686172616E67004C36
:1011A80065616436566F696365004C6561643766CE
:1011B8006966746873004C65616438426173732BA7
:1011C8004C65616400506164314E65774167650024
:1011D800506164325761726D0050616433506F6CB6
:1011E8007973796E7468005061643443686F69720A
:1011F8000050616435426F77656400506164364D14
:101208006574616C6C6963005061643748616C6F28
:1012180000506164385377656570004658315261F3
:10122800696E00465832536F756E64747261636BF1
:10123800004658334372797374616C0046583441E0
:10124800746D6F73706865726500465835427269CF
:101258006768746E65737300465836476F626C69C9
:101268006E73004658374563686F65730046583893
:1012780053636946690053697461720042616E6A1A
:101288006F005368616D6973656E004B6F746F0012
:101298004B616C696D6261004261677069706500DD
:1012A800466964646C65005368616E6169005469DD
:1012B8006E6B6C6542656C6C0041676F676F0053BD
:1012C8007465656C4472756D7300576F6F64626CFA
:1012D8006F636B005461696B6F4472756D004D6587
:1012E8006C6F646963546F6D0053796E74684472EF
:1012F800756D005265766572736543796D62616CD0
:1013080000477569746172467265744E6F697365DA
:10131800004272656174684E6F6973650053656158
:1013280073686F726500426972645477656574000A
:1013380054656C6570686F6E6552696E67004865C4
:101348006C69636F70746572004170706C6175735D
:0A135800650047756E73686F74003E
:00000001FF
